{
  "_format": "hh-sol-artifact-1",
  "contractName": "ProfileImageNfts",
  "sourceName": "contracts/MintProfileImage.sol",
  "abi": [
    {
      "inputs": [],
      "stateMutability": "nonpayable",
      "type": "constructor"
    },
    {
      "anonymous": false,
      "inputs": [
        {
          "indexed": true,
          "internalType": "address",
          "name": "owner",
          "type": "address"
        },
        {
          "indexed": true,
          "internalType": "address",
          "name": "approved",
          "type": "address"
        },
        {
          "indexed": true,
          "internalType": "uint256",
          "name": "tokenId",
          "type": "uint256"
        }
      ],
      "name": "Approval",
      "type": "event"
    },
    {
      "anonymous": false,
      "inputs": [
        {
          "indexed": true,
          "internalType": "address",
          "name": "owner",
          "type": "address"
        },
        {
          "indexed": true,
          "internalType": "address",
          "name": "operator",
          "type": "address"
        },
        {
          "indexed": false,
          "internalType": "bool",
          "name": "approved",
          "type": "bool"
        }
      ],
      "name": "ApprovalForAll",
      "type": "event"
    },
    {
      "anonymous": false,
      "inputs": [
        {
          "indexed": true,
          "internalType": "address",
          "name": "previousOwner",
          "type": "address"
        },
        {
          "indexed": true,
          "internalType": "address",
          "name": "newOwner",
          "type": "address"
        }
      ],
      "name": "OwnershipTransferred",
      "type": "event"
    },
    {
      "anonymous": false,
      "inputs": [
        {
          "indexed": true,
          "internalType": "address",
          "name": "from",
          "type": "address"
        },
        {
          "indexed": true,
          "internalType": "address",
          "name": "to",
          "type": "address"
        },
        {
          "indexed": true,
          "internalType": "uint256",
          "name": "tokenId",
          "type": "uint256"
        }
      ],
      "name": "Transfer",
      "type": "event"
    },
    {
      "inputs": [
        {
          "internalType": "address",
          "name": "to",
          "type": "address"
        },
        {
          "internalType": "uint256",
          "name": "tokenId",
          "type": "uint256"
        }
      ],
      "name": "approve",
      "outputs": [],
      "stateMutability": "nonpayable",
      "type": "function"
    },
    {
      "inputs": [
        {
          "internalType": "address",
          "name": "owner",
          "type": "address"
        }
      ],
      "name": "balanceOf",
      "outputs": [
        {
          "internalType": "uint256",
          "name": "",
          "type": "uint256"
        }
      ],
      "stateMutability": "view",
      "type": "function"
    },
    {
      "inputs": [],
      "name": "getAlltoken",
      "outputs": [
        {
          "components": [
            {
              "internalType": "uint256",
              "name": "id",
              "type": "uint256"
            },
            {
              "internalType": "string",
              "name": "uri",
              "type": "string"
            },
            {
              "internalType": "string",
              "name": "space",
              "type": "string"
            }
          ],
          "internalType": "struct ProfileImageNfts.RenderToken[]",
          "name": "",
          "type": "tuple[]"
        }
      ],
      "stateMutability": "view",
      "type": "function"
    },
    {
      "inputs": [
        {
          "internalType": "uint256",
          "name": "tokenId",
          "type": "uint256"
        }
      ],
      "name": "getApproved",
      "outputs": [
        {
          "internalType": "address",
          "name": "",
          "type": "address"
        }
      ],
      "stateMutability": "view",
      "type": "function"
    },
    {
      "inputs": [
        {
          "internalType": "address",
          "name": "owner",
          "type": "address"
        },
        {
          "internalType": "address",
          "name": "operator",
          "type": "address"
        }
      ],
      "name": "isApprovedForAll",
      "outputs": [
        {
          "internalType": "bool",
          "name": "",
          "type": "bool"
        }
      ],
      "stateMutability": "view",
      "type": "function"
    },
    {
      "inputs": [
        {
          "internalType": "address",
          "name": "recipents",
          "type": "address"
        },
        {
          "internalType": "string",
          "name": "_uri",
          "type": "string"
        }
      ],
      "name": "mint",
      "outputs": [
        {
          "internalType": "uint256",
          "name": "",
          "type": "uint256"
        }
      ],
      "stateMutability": "nonpayable",
      "type": "function"
    },
    {
      "inputs": [],
      "name": "name",
      "outputs": [
        {
          "internalType": "string",
          "name": "",
          "type": "string"
        }
      ],
      "stateMutability": "view",
      "type": "function"
    },
    {
      "inputs": [],
      "name": "owner",
      "outputs": [
        {
          "internalType": "address",
          "name": "",
          "type": "address"
        }
      ],
      "stateMutability": "view",
      "type": "function"
    },
    {
      "inputs": [
        {
          "internalType": "uint256",
          "name": "tokenId",
          "type": "uint256"
        }
      ],
      "name": "ownerOf",
      "outputs": [
        {
          "internalType": "address",
          "name": "",
          "type": "address"
        }
      ],
      "stateMutability": "view",
      "type": "function"
    },
    {
      "inputs": [],
      "name": "renounceOwnership",
      "outputs": [],
      "stateMutability": "nonpayable",
      "type": "function"
    },
    {
      "inputs": [
        {
          "internalType": "address",
          "name": "from",
          "type": "address"
        },
        {
          "internalType": "address",
          "name": "to",
          "type": "address"
        },
        {
          "internalType": "uint256",
          "name": "tokenId",
          "type": "uint256"
        }
      ],
      "name": "safeTransferFrom",
      "outputs": [],
      "stateMutability": "nonpayable",
      "type": "function"
    },
    {
      "inputs": [
        {
          "internalType": "address",
          "name": "from",
          "type": "address"
        },
        {
          "internalType": "address",
          "name": "to",
          "type": "address"
        },
        {
          "internalType": "uint256",
          "name": "tokenId",
          "type": "uint256"
        },
        {
          "internalType": "bytes",
          "name": "data",
          "type": "bytes"
        }
      ],
      "name": "safeTransferFrom",
      "outputs": [],
      "stateMutability": "nonpayable",
      "type": "function"
    },
    {
      "inputs": [
        {
          "internalType": "address",
          "name": "operator",
          "type": "address"
        },
        {
          "internalType": "bool",
          "name": "approved",
          "type": "bool"
        }
      ],
      "name": "setApprovalForAll",
      "outputs": [],
      "stateMutability": "nonpayable",
      "type": "function"
    },
    {
      "inputs": [
        {
          "internalType": "bytes4",
          "name": "interfaceId",
          "type": "bytes4"
        }
      ],
      "name": "supportsInterface",
      "outputs": [
        {
          "internalType": "bool",
          "name": "",
          "type": "bool"
        }
      ],
      "stateMutability": "view",
      "type": "function"
    },
    {
      "inputs": [],
      "name": "symbol",
      "outputs": [
        {
          "internalType": "string",
          "name": "",
          "type": "string"
        }
      ],
      "stateMutability": "view",
      "type": "function"
    },
    {
      "inputs": [
        {
          "internalType": "uint256",
          "name": "tokenId",
          "type": "uint256"
        }
      ],
      "name": "tokenURI",
      "outputs": [
        {
          "internalType": "string",
          "name": "",
          "type": "string"
        }
      ],
      "stateMutability": "view",
      "type": "function"
    },
    {
      "inputs": [
        {
          "internalType": "address",
          "name": "from",
          "type": "address"
        },
        {
          "internalType": "address",
          "name": "to",
          "type": "address"
        },
        {
          "internalType": "uint256",
          "name": "tokenId",
          "type": "uint256"
        }
      ],
      "name": "transferFrom",
      "outputs": [],
      "stateMutability": "nonpayable",
      "type": "function"
    },
    {
      "inputs": [
        {
          "internalType": "address",
          "name": "newOwner",
          "type": "address"
        }
      ],
      "name": "transferOwnership",
      "outputs": [],
      "stateMutability": "nonpayable",
      "type": "function"
    }
  ],
  "bytecode": "0x60806040523480156200001157600080fd5b506040518060400160405280601081526020017f50726f66696c65496d6167654e465473000000000000000000000000000000008152506040518060400160405280600381526020017f50494e000000000000000000000000000000000000000000000000000000000081525081600090816200008f919062000412565b508060019081620000a1919062000412565b505050620000c4620000b8620000ca60201b60201c565b620000d260201b60201c565b620004f9565b600033905090565b6000600660009054906101000a900473ffffffffffffffffffffffffffffffffffffffff16905081600660006101000a81548173ffffffffffffffffffffffffffffffffffffffff021916908373ffffffffffffffffffffffffffffffffffffffff1602179055508173ffffffffffffffffffffffffffffffffffffffff168173ffffffffffffffffffffffffffffffffffffffff167f8be0079c531659141344cd1fd0a4f28419497f9722a3daafe3b4186f6b6457e060405160405180910390a35050565b600081519050919050565b7f4e487b7100000000000000000000000000000000000000000000000000000000600052604160045260246000fd5b7f4e487b7100000000000000000000000000000000000000000000000000000000600052602260045260246000fd5b600060028204905060018216806200021a57607f821691505b60208210810362000230576200022f620001d2565b5b50919050565b60008190508160005260206000209050919050565b60006020601f8301049050919050565b600082821b905092915050565b6000600883026200029a7fffffffffffffffffffffffffffffffffffffffffffffffffffffffffffffffff826200025b565b620002a686836200025b565b95508019841693508086168417925050509392505050565b6000819050919050565b6000819050919050565b6000620002f3620002ed620002e784620002be565b620002c8565b620002be565b9050919050565b6000819050919050565b6200030f83620002d2565b620003276200031e82620002fa565b84845462000268565b825550505050565b600090565b6200033e6200032f565b6200034b81848462000304565b505050565b5b8181101562000373576200036760008262000334565b60018101905062000351565b5050565b601f821115620003c2576200038c8162000236565b62000397846200024b565b81016020851015620003a7578190505b620003bf620003b6856200024b565b83018262000350565b50505b505050565b600082821c905092915050565b6000620003e760001984600802620003c7565b1980831691505092915050565b6000620004028383620003d4565b9150826002028217905092915050565b6200041d8262000198565b67ffffffffffffffff811115620004395762000438620001a3565b5b62000445825462000201565b6200045282828562000377565b600060209050601f8311600181146200048a576000841562000475578287015190505b620004818582620003f4565b865550620004f1565b601f1984166200049a8662000236565b60005b82811015620004c4578489015182556001820191506020850194506020810190506200049d565b86831015620004e45784890151620004e0601f891682620003d4565b8355505b6001600288020188555050505b505050505050565b612d3880620005096000396000f3fe608060405234801561001057600080fd5b50600436106101165760003560e01c8063715018a6116100a2578063b88d4fde11610071578063b88d4fde146102cd578063c87b56dd146102e9578063d0def52114610319578063e985e9c514610349578063f2fde38b1461037957610116565b8063715018a61461026b5780638da5cb5b1461027557806395d89b4114610293578063a22cb465146102b157610116565b806323b872dd116100e957806323b872dd146101b557806328904431146101d157806342842e0e146101ef5780636352211e1461020b57806370a082311461023b57610116565b806301ffc9a71461011b57806306fdde031461014b578063081812fc14610169578063095ea7b314610199575b600080fd5b6101356004803603810190610130919061193c565b610395565b6040516101429190611984565b60405180910390f35b610153610477565b6040516101609190611a2f565b60405180910390f35b610183600480360381019061017e9190611a87565b610509565b6040516101909190611af5565b60405180910390f35b6101b360048036038101906101ae9190611b3c565b61054f565b005b6101cf60048036038101906101ca9190611b7c565b610666565b005b6101d96106c6565b6040516101e69190611d41565b60405180910390f35b61020960048036038101906102049190611b7c565b6107df565b005b61022560048036038101906102209190611a87565b6107ff565b6040516102329190611af5565b60405180910390f35b61025560048036038101906102509190611d63565b6108b0565b6040516102629190611d9f565b60405180910390f35b610273610967565b005b61027d61097b565b60405161028a9190611af5565b60405180910390f35b61029b6109a5565b6040516102a89190611a2f565b60405180910390f35b6102cb60048036038101906102c69190611de6565b610a37565b005b6102e760048036038101906102e29190611f5b565b610a4d565b005b61030360048036038101906102fe9190611a87565b610aaf565b6040516103109190611a2f565b60405180910390f35b610333600480360381019061032e919061207f565b610ba2565b6040516103409190611d9f565b60405180910390f35b610363600480360381019061035e91906120db565b610bd9565b6040516103709190611984565b60405180910390f35b610393600480360381019061038e9190611d63565b610c6d565b005b60007f80ac58cd000000000000000000000000000000000000000000000000000000007bffffffffffffffffffffffffffffffffffffffffffffffffffffffff1916827bffffffffffffffffffffffffffffffffffffffffffffffffffffffff1916148061046057507f5b5e139f000000000000000000000000000000000000000000000000000000007bffffffffffffffffffffffffffffffffffffffffffffffffffffffff1916827bffffffffffffffffffffffffffffffffffffffffffffffffffffffff1916145b80610470575061046f82610cf0565b5b9050919050565b6060600080546104869061214a565b80601f01602080910402602001604051908101604052809291908181526020018280546104b29061214a565b80156104ff5780601f106104d4576101008083540402835291602001916104ff565b820191906000526020600020905b8154815290600101906020018083116104e257829003601f168201915b5050505050905090565b600061051482610d5a565b6004600083815260200190815260200160002060009054906101000a900473ffffffffffffffffffffffffffffffffffffffff169050919050565b600061055a826107ff565b90508073ffffffffffffffffffffffffffffffffffffffff168373ffffffffffffffffffffffffffffffffffffffff16036105ca576040517f08c379a00000000000000000000000000000000000000000000000000000000081526004016105c1906121ed565b60405180910390fd5b8073ffffffffffffffffffffffffffffffffffffffff166105e9610da5565b73ffffffffffffffffffffffffffffffffffffffff161480610618575061061781610612610da5565b610bd9565b5b610657576040517f08c379a000000000000000000000000000000000000000000000000000000000815260040161064e9061227f565b60405180910390fd5b6106618383610dad565b505050565b610677610671610da5565b82610e66565b6106b6576040517f08c379a00000000000000000000000000000000000000000000000000000000081526004016106ad90612311565b60405180910390fd5b6106c1838383610efb565b505050565b606060006106d46007611161565b905060008167ffffffffffffffff8111156106f2576106f1611e30565b5b60405190808252806020026020018201604052801561072b57816020015b6107186118af565b8152602001906001900390816107105790505b50905060005b8281116107d6576107418161116f565b156107c357600061075182610aaf565b905060405180606001604052808381526020018281526020016040518060400160405280600181526020017f20000000000000000000000000000000000000000000000000000000000000008152508152508383815181106107b6576107b5612331565b5b6020026020010181905250505b80806107ce9061238f565b915050610731565b50809250505090565b6107fa83838360405180602001604052806000815250610a4d565b505050565b6000806002600084815260200190815260200160002060009054906101000a900473ffffffffffffffffffffffffffffffffffffffff169050600073ffffffffffffffffffffffffffffffffffffffff168173ffffffffffffffffffffffffffffffffffffffff16036108a7576040517f08c379a000000000000000000000000000000000000000000000000000000000815260040161089e90612423565b60405180910390fd5b80915050919050565b60008073ffffffffffffffffffffffffffffffffffffffff168273ffffffffffffffffffffffffffffffffffffffff1603610920576040517f08c379a0000000000000000000000000000000000000000000000000000000008152600401610917906124b5565b60405180910390fd5b600360008373ffffffffffffffffffffffffffffffffffffffff1673ffffffffffffffffffffffffffffffffffffffff168152602001908152602001600020549050919050565b61096f6111db565b6109796000611259565b565b6000600660009054906101000a900473ffffffffffffffffffffffffffffffffffffffff16905090565b6060600180546109b49061214a565b80601f01602080910402602001604051908101604052809291908181526020018280546109e09061214a565b8015610a2d5780601f10610a0257610100808354040283529160200191610a2d565b820191906000526020600020905b815481529060010190602001808311610a1057829003601f168201915b5050505050905090565b610a49610a42610da5565b838361131f565b5050565b610a5e610a58610da5565b83610e66565b610a9d576040517f08c379a0000000000000000000000000000000000000000000000000000000008152600401610a9490612311565b60405180910390fd5b610aa98484848461148b565b50505050565b6060610aba8261116f565b610af9576040517f08c379a0000000000000000000000000000000000000000000000000000000008152600401610af090612521565b60405180910390fd5b6000600860008481526020019081526020016000208054610b199061214a565b80601f0160208091040260200160405190810160405280929190818152602001828054610b459061214a565b8015610b925780601f10610b6757610100808354040283529160200191610b92565b820191906000526020600020905b815481529060010190602001808311610b7557829003601f168201915b5050505050905080915050919050565b600080610baf6007611161565b9050610bbb84826114e7565b610bc581846116c0565b610bcf60076116e5565b8091505092915050565b6000600560008473ffffffffffffffffffffffffffffffffffffffff1673ffffffffffffffffffffffffffffffffffffffff16815260200190815260200160002060008373ffffffffffffffffffffffffffffffffffffffff1673ffffffffffffffffffffffffffffffffffffffff16815260200190815260200160002060009054906101000a900460ff16905092915050565b610c756111db565b600073ffffffffffffffffffffffffffffffffffffffff168173ffffffffffffffffffffffffffffffffffffffff1603610ce4576040517f08c379a0000000000000000000000000000000000000000000000000000000008152600401610cdb906125b3565b60405180910390fd5b610ced81611259565b50565b60007f01ffc9a7000000000000000000000000000000000000000000000000000000007bffffffffffffffffffffffffffffffffffffffffffffffffffffffff1916827bffffffffffffffffffffffffffffffffffffffffffffffffffffffff1916149050919050565b610d638161116f565b610da2576040517f08c379a0000000000000000000000000000000000000000000000000000000008152600401610d9990612423565b60405180910390fd5b50565b600033905090565b816004600083815260200190815260200160002060006101000a81548173ffffffffffffffffffffffffffffffffffffffff021916908373ffffffffffffffffffffffffffffffffffffffff160217905550808273ffffffffffffffffffffffffffffffffffffffff16610e20836107ff565b73ffffffffffffffffffffffffffffffffffffffff167f8c5be1e5ebec7d5bd14f71427d1e84f3dd0314c0f7b2291e5b200ac8c7c3b92560405160405180910390a45050565b600080610e72836107ff565b90508073ffffffffffffffffffffffffffffffffffffffff168473ffffffffffffffffffffffffffffffffffffffff161480610eb45750610eb38185610bd9565b5b80610ef257508373ffffffffffffffffffffffffffffffffffffffff16610eda84610509565b73ffffffffffffffffffffffffffffffffffffffff16145b91505092915050565b8273ffffffffffffffffffffffffffffffffffffffff16610f1b826107ff565b73ffffffffffffffffffffffffffffffffffffffff1614610f71576040517f08c379a0000000000000000000000000000000000000000000000000000000008152600401610f6890612645565b60405180910390fd5b600073ffffffffffffffffffffffffffffffffffffffff168273ffffffffffffffffffffffffffffffffffffffff1603610fe0576040517f08c379a0000000000000000000000000000000000000000000000000000000008152600401610fd7906126d7565b60405180910390fd5b610feb8383836116fb565b610ff6600082610dad565b6001600360008573ffffffffffffffffffffffffffffffffffffffff1673ffffffffffffffffffffffffffffffffffffffff168152602001908152602001600020600082825461104691906126f7565b925050819055506001600360008473ffffffffffffffffffffffffffffffffffffffff1673ffffffffffffffffffffffffffffffffffffffff168152602001908152602001600020600082825461109d919061272b565b92505081905550816002600083815260200190815260200160002060006101000a81548173ffffffffffffffffffffffffffffffffffffffff021916908373ffffffffffffffffffffffffffffffffffffffff160217905550808273ffffffffffffffffffffffffffffffffffffffff168473ffffffffffffffffffffffffffffffffffffffff167fddf252ad1be2c89b69c2b068fc378daa952ba7f163c4a11628f55a4df523b3ef60405160405180910390a461115c838383611700565b505050565b600081600001549050919050565b60008073ffffffffffffffffffffffffffffffffffffffff166002600084815260200190815260200160002060009054906101000a900473ffffffffffffffffffffffffffffffffffffffff1673ffffffffffffffffffffffffffffffffffffffff1614159050919050565b6111e3610da5565b73ffffffffffffffffffffffffffffffffffffffff1661120161097b565b73ffffffffffffffffffffffffffffffffffffffff1614611257576040517f08c379a000000000000000000000000000000000000000000000000000000000815260040161124e906127ab565b60405180910390fd5b565b6000600660009054906101000a900473ffffffffffffffffffffffffffffffffffffffff16905081600660006101000a81548173ffffffffffffffffffffffffffffffffffffffff021916908373ffffffffffffffffffffffffffffffffffffffff1602179055508173ffffffffffffffffffffffffffffffffffffffff168173ffffffffffffffffffffffffffffffffffffffff167f8be0079c531659141344cd1fd0a4f28419497f9722a3daafe3b4186f6b6457e060405160405180910390a35050565b8173ffffffffffffffffffffffffffffffffffffffff168373ffffffffffffffffffffffffffffffffffffffff160361138d576040517f08c379a000000000000000000000000000000000000000000000000000000000815260040161138490612817565b60405180910390fd5b80600560008573ffffffffffffffffffffffffffffffffffffffff1673ffffffffffffffffffffffffffffffffffffffff16815260200190815260200160002060008473ffffffffffffffffffffffffffffffffffffffff1673ffffffffffffffffffffffffffffffffffffffff16815260200190815260200160002060006101000a81548160ff0219169083151502179055508173ffffffffffffffffffffffffffffffffffffffff168373ffffffffffffffffffffffffffffffffffffffff167f17307eab39ab6107e8899845ad3d59bd9653f200f220920489ca2b5937696c318360405161147e9190611984565b60405180910390a3505050565b611496848484610efb565b6114a284848484611705565b6114e1576040517f08c379a00000000000000000000000000000000000000000000000000000000081526004016114d8906128a9565b60405180910390fd5b50505050565b600073ffffffffffffffffffffffffffffffffffffffff168273ffffffffffffffffffffffffffffffffffffffff1603611556576040517f08c379a000000000000000000000000000000000000000000000000000000000815260040161154d90612915565b60405180910390fd5b61155f8161116f565b1561159f576040517f08c379a000000000000000000000000000000000000000000000000000000000815260040161159690612981565b60405180910390fd5b6115ab600083836116fb565b6001600360008473ffffffffffffffffffffffffffffffffffffffff1673ffffffffffffffffffffffffffffffffffffffff16815260200190815260200160002060008282546115fb919061272b565b92505081905550816002600083815260200190815260200160002060006101000a81548173ffffffffffffffffffffffffffffffffffffffff021916908373ffffffffffffffffffffffffffffffffffffffff160217905550808273ffffffffffffffffffffffffffffffffffffffff16600073ffffffffffffffffffffffffffffffffffffffff167fddf252ad1be2c89b69c2b068fc378daa952ba7f163c4a11628f55a4df523b3ef60405160405180910390a46116bc60008383611700565b5050565b806008600084815260200190815260200160002090816116e09190612b4d565b505050565b6001816000016000828254019250508190555050565b505050565b505050565b60006117268473ffffffffffffffffffffffffffffffffffffffff1661188c565b1561187f578373ffffffffffffffffffffffffffffffffffffffff1663150b7a0261174f610da5565b8786866040518563ffffffff1660e01b81526004016117719493929190612c74565b6020604051808303816000875af19250505080156117ad57506040513d601f19601f820116820180604052508101906117aa9190612cd5565b60015b61182f573d80600081146117dd576040519150601f19603f3d011682016040523d82523d6000602084013e6117e2565b606091505b506000815103611827576040517f08c379a000000000000000000000000000000000000000000000000000000000815260040161181e906128a9565b60405180910390fd5b805181602001fd5b63150b7a0260e01b7bffffffffffffffffffffffffffffffffffffffffffffffffffffffff1916817bffffffffffffffffffffffffffffffffffffffffffffffffffffffff191614915050611884565b600190505b949350505050565b6000808273ffffffffffffffffffffffffffffffffffffffff163b119050919050565b60405180606001604052806000815260200160608152602001606081525090565b6000604051905090565b600080fd5b600080fd5b60007fffffffff0000000000000000000000000000000000000000000000000000000082169050919050565b611919816118e4565b811461192457600080fd5b50565b60008135905061193681611910565b92915050565b600060208284031215611952576119516118da565b5b600061196084828501611927565b91505092915050565b60008115159050919050565b61197e81611969565b82525050565b60006020820190506119996000830184611975565b92915050565b600081519050919050565b600082825260208201905092915050565b60005b838110156119d95780820151818401526020810190506119be565b60008484015250505050565b6000601f19601f8301169050919050565b6000611a018261199f565b611a0b81856119aa565b9350611a1b8185602086016119bb565b611a24816119e5565b840191505092915050565b60006020820190508181036000830152611a4981846119f6565b905092915050565b6000819050919050565b611a6481611a51565b8114611a6f57600080fd5b50565b600081359050611a8181611a5b565b92915050565b600060208284031215611a9d57611a9c6118da565b5b6000611aab84828501611a72565b91505092915050565b600073ffffffffffffffffffffffffffffffffffffffff82169050919050565b6000611adf82611ab4565b9050919050565b611aef81611ad4565b82525050565b6000602082019050611b0a6000830184611ae6565b92915050565b611b1981611ad4565b8114611b2457600080fd5b50565b600081359050611b3681611b10565b92915050565b60008060408385031215611b5357611b526118da565b5b6000611b6185828601611b27565b9250506020611b7285828601611a72565b9150509250929050565b600080600060608486031215611b9557611b946118da565b5b6000611ba386828701611b27565b9350506020611bb486828701611b27565b9250506040611bc586828701611a72565b9150509250925092565b600081519050919050565b600082825260208201905092915050565b6000819050602082019050919050565b611c0481611a51565b82525050565b600082825260208201905092915050565b6000611c268261199f565b611c308185611c0a565b9350611c408185602086016119bb565b611c49816119e5565b840191505092915050565b6000606083016000830151611c6c6000860182611bfb565b5060208301518482036020860152611c848282611c1b565b91505060408301518482036040860152611c9e8282611c1b565b9150508091505092915050565b6000611cb78383611c54565b905092915050565b6000602082019050919050565b6000611cd782611bcf565b611ce18185611bda565b935083602082028501611cf385611beb565b8060005b85811015611d2f5784840389528151611d108582611cab565b9450611d1b83611cbf565b925060208a01995050600181019050611cf7565b50829750879550505050505092915050565b60006020820190508181036000830152611d5b8184611ccc565b905092915050565b600060208284031215611d7957611d786118da565b5b6000611d8784828501611b27565b91505092915050565b611d9981611a51565b82525050565b6000602082019050611db46000830184611d90565b92915050565b611dc381611969565b8114611dce57600080fd5b50565b600081359050611de081611dba565b92915050565b60008060408385031215611dfd57611dfc6118da565b5b6000611e0b85828601611b27565b9250506020611e1c85828601611dd1565b9150509250929050565b600080fd5b600080fd5b7f4e487b7100000000000000000000000000000000000000000000000000000000600052604160045260246000fd5b611e68826119e5565b810181811067ffffffffffffffff82111715611e8757611e86611e30565b5b80604052505050565b6000611e9a6118d0565b9050611ea68282611e5f565b919050565b600067ffffffffffffffff821115611ec657611ec5611e30565b5b611ecf826119e5565b9050602081019050919050565b82818337600083830152505050565b6000611efe611ef984611eab565b611e90565b905082815260208101848484011115611f1a57611f19611e2b565b5b611f25848285611edc565b509392505050565b600082601f830112611f4257611f41611e26565b5b8135611f52848260208601611eeb565b91505092915050565b60008060008060808587031215611f7557611f746118da565b5b6000611f8387828801611b27565b9450506020611f9487828801611b27565b9350506040611fa587828801611a72565b925050606085013567ffffffffffffffff811115611fc657611fc56118df565b5b611fd287828801611f2d565b91505092959194509250565b600067ffffffffffffffff821115611ff957611ff8611e30565b5b612002826119e5565b9050602081019050919050565b600061202261201d84611fde565b611e90565b90508281526020810184848401111561203e5761203d611e2b565b5b612049848285611edc565b509392505050565b600082601f83011261206657612065611e26565b5b813561207684826020860161200f565b91505092915050565b60008060408385031215612096576120956118da565b5b60006120a485828601611b27565b925050602083013567ffffffffffffffff8111156120c5576120c46118df565b5b6120d185828601612051565b9150509250929050565b600080604083850312156120f2576120f16118da565b5b600061210085828601611b27565b925050602061211185828601611b27565b9150509250929050565b7f4e487b7100000000000000000000000000000000000000000000000000000000600052602260045260246000fd5b6000600282049050600182168061216257607f821691505b6020821081036121755761217461211b565b5b50919050565b7f4552433732313a20617070726f76616c20746f2063757272656e74206f776e6560008201527f7200000000000000000000000000000000000000000000000000000000000000602082015250565b60006121d76021836119aa565b91506121e28261217b565b604082019050919050565b60006020820190508181036000830152612206816121ca565b9050919050565b7f4552433732313a20617070726f76652063616c6c6572206973206e6f7420746f60008201527f6b656e206f776e6572206e6f7220617070726f76656420666f7220616c6c0000602082015250565b6000612269603e836119aa565b91506122748261220d565b604082019050919050565b600060208201905081810360008301526122988161225c565b9050919050565b7f4552433732313a2063616c6c6572206973206e6f7420746f6b656e206f776e6560008201527f72206e6f7220617070726f766564000000000000000000000000000000000000602082015250565b60006122fb602e836119aa565b91506123068261229f565b604082019050919050565b6000602082019050818103600083015261232a816122ee565b9050919050565b7f4e487b7100000000000000000000000000000000000000000000000000000000600052603260045260246000fd5b7f4e487b7100000000000000000000000000000000000000000000000000000000600052601160045260246000fd5b600061239a82611a51565b91507fffffffffffffffffffffffffffffffffffffffffffffffffffffffffffffffff82036123cc576123cb612360565b5b600182019050919050565b7f4552433732313a20696e76616c696420746f6b656e2049440000000000000000600082015250565b600061240d6018836119aa565b9150612418826123d7565b602082019050919050565b6000602082019050818103600083015261243c81612400565b9050919050565b7f4552433732313a2061646472657373207a65726f206973206e6f74206120766160008201527f6c6964206f776e65720000000000000000000000000000000000000000000000602082015250565b600061249f6029836119aa565b91506124aa82612443565b604082019050919050565b600060208201905081810360008301526124ce81612492565b9050919050565b7f55524920646f6573206e6f74206578697374206f6e2074686174204944000000600082015250565b600061250b601d836119aa565b9150612516826124d5565b602082019050919050565b6000602082019050818103600083015261253a816124fe565b9050919050565b7f4f776e61626c653a206e6577206f776e657220697320746865207a65726f206160008201527f6464726573730000000000000000000000000000000000000000000000000000602082015250565b600061259d6026836119aa565b91506125a882612541565b604082019050919050565b600060208201905081810360008301526125cc81612590565b9050919050565b7f4552433732313a207472616e736665722066726f6d20696e636f72726563742060008201527f6f776e6572000000000000000000000000000000000000000000000000000000602082015250565b600061262f6025836119aa565b915061263a826125d3565b604082019050919050565b6000602082019050818103600083015261265e81612622565b9050919050565b7f4552433732313a207472616e7366657220746f20746865207a65726f2061646460008201527f7265737300000000000000000000000000000000000000000000000000000000602082015250565b60006126c16024836119aa565b91506126cc82612665565b604082019050919050565b600060208201905081810360008301526126f0816126b4565b9050919050565b600061270282611a51565b915061270d83611a51565b925082820390508181111561272557612724612360565b5b92915050565b600061273682611a51565b915061274183611a51565b925082820190508082111561275957612758612360565b5b92915050565b7f4f776e61626c653a2063616c6c6572206973206e6f7420746865206f776e6572600082015250565b60006127956020836119aa565b91506127a08261275f565b602082019050919050565b600060208201905081810360008301526127c481612788565b9050919050565b7f4552433732313a20617070726f766520746f2063616c6c657200000000000000600082015250565b60006128016019836119aa565b915061280c826127cb565b602082019050919050565b60006020820190508181036000830152612830816127f4565b9050919050565b7f4552433732313a207472616e7366657220746f206e6f6e20455243373231526560008201527f63656976657220696d706c656d656e7465720000000000000000000000000000602082015250565b60006128936032836119aa565b915061289e82612837565b604082019050919050565b600060208201905081810360008301526128c281612886565b9050919050565b7f4552433732313a206d696e7420746f20746865207a65726f2061646472657373600082015250565b60006128ff6020836119aa565b915061290a826128c9565b602082019050919050565b6000602082019050818103600083015261292e816128f2565b9050919050565b7f4552433732313a20746f6b656e20616c7265616479206d696e74656400000000600082015250565b600061296b601c836119aa565b915061297682612935565b602082019050919050565b6000602082019050818103600083015261299a8161295e565b9050919050565b60008190508160005260206000209050919050565b60006020601f8301049050919050565b600082821b905092915050565b600060088302612a037fffffffffffffffffffffffffffffffffffffffffffffffffffffffffffffffff826129c6565b612a0d86836129c6565b95508019841693508086168417925050509392505050565b6000819050919050565b6000612a4a612a45612a4084611a51565b612a25565b611a51565b9050919050565b6000819050919050565b612a6483612a2f565b612a78612a7082612a51565b8484546129d3565b825550505050565b600090565b612a8d612a80565b612a98818484612a5b565b505050565b5b81811015612abc57612ab1600082612a85565b600181019050612a9e565b5050565b601f821115612b0157612ad2816129a1565b612adb846129b6565b81016020851015612aea578190505b612afe612af6856129b6565b830182612a9d565b50505b505050565b600082821c905092915050565b6000612b2460001984600802612b06565b1980831691505092915050565b6000612b3d8383612b13565b9150826002028217905092915050565b612b568261199f565b67ffffffffffffffff811115612b6f57612b6e611e30565b5b612b79825461214a565b612b84828285612ac0565b600060209050601f831160018114612bb75760008415612ba5578287015190505b612baf8582612b31565b865550612c17565b601f198416612bc5866129a1565b60005b82811015612bed57848901518255600182019150602085019450602081019050612bc8565b86831015612c0a5784890151612c06601f891682612b13565b8355505b6001600288020188555050505b505050505050565b600081519050919050565b600082825260208201905092915050565b6000612c4682612c1f565b612c508185612c2a565b9350612c608185602086016119bb565b612c69816119e5565b840191505092915050565b6000608082019050612c896000830187611ae6565b612c966020830186611ae6565b612ca36040830185611d90565b8181036060830152612cb58184612c3b565b905095945050505050565b600081519050612ccf81611910565b92915050565b600060208284031215612ceb57612cea6118da565b5b6000612cf984828501612cc0565b9150509291505056fea264697066735822122068156c08ca60c094dddbac69fa6b8dcdd49e54b84e0df916eda8442f07d065b164736f6c63430008110033",
  "linkReferences": {},
  "deployedLinkReferences": {}
}